:1000000000300020D5000000430100007D0B0000FF
:1000100000000000000000000000000000000000E0
:10002000000000000000000000000000B3260000F7
:10003000000000000000000011040000AD0B0000F3
:100040004F010000570100005F0100006701000040
:100050006F010000770100007F01000087010000B0
:100060008F010000970100009F010000A701000020
:10007000AF010000B7010000BF010000C701000090
:10008000CF010000D7010000DF010000A909000036
:10009000EF010000F7010000FF010000070200006F
:1000A0000F020000170200001F02000027020000DC
:1000B0002F020000370200003F020000F10800009C
:1000C000482B000080F0FF1F1000000090F0FF1F81
:1000D0004C01000010B572B601F04AFE0D4B07E06E
:1000E000186859681C000C349A6800F019F823004D
:1000F000094A9342F4D306E018681C000834596892
:1001000000F017F82300054A9342F5D362B600F0D9
:10011000E5FCFEE7C0000000CC000000D4000000B9
:1001200010B50023934203D210C810C10433F9E77D
:1001300010BD00238B4203D2002204C00433F9E730
:100140007047FEE7FEE7FEE7FEE7FEE7FEE710B5D5
:10015000FFF7FCFF10BD10B5FFF7F8FF10BD10B59D
:10016000FFF7F4FF10BD10B5FFF7F0FF10BD10B59D
:10017000FFF7ECFF10BD10B5FFF7E8FF10BD10B59D
:10018000FFF7E4FF10BD10B5FFF7E0FF10BD10B59D
:1001900001F054FB10BD10B501F060FB10BD10B5AF
:1001A000FFF7D4FF10BD10B5FFF7D0FF10BD10B59D
:1001B00001F064FB10BD10B501F072FB10BD10B56D
:1001C00001F080FB10BD10B5FFF7C0FF10BD10B5EA
:1001D000FFF7BCFF10BD10B5FFF7B8FF10BD10B59D
:1001E000FFF7B4FF10BD10B5FFF7B0FF10BD10B59D
:1001F000FFF7ACFF10BD10B5FFF7A8FF10BD10B59D
:10020000FFF7A4FF10BD10B5FFF7A0FF10BD10B59C
:10021000FFF79CFF10BD10B5FFF798FF10BD10B59C
:10022000FFF794FF10BD10B5FFF790FF10BD10B59C
:10023000FFF78CFF10BD10B5FFF788FF10BD10B59C
:10024000FFF784FF10BD10B5FFF780FF10BDFFFF63
:10025000FFFFFFFFFFFFFFFFFFFFFFFFFFFFFFFFAE
:10026000FFFFFFFFFFFFFFFFFFFFFFFFFFFFFFFF9E
:10027000FFFFFFFFFFFFFFFFFFFFFFFFFFFFFFFF8E
:10028000FFFFFFFFFFFFFFFFFFFFFFFFFFFFFFFF7E
:10029000FFFFFFFFFFFFFFFFFFFFFFFFFFFFFFFF6E
:1002A000FFFFFFFFFFFFFFFFFFFFFFFFFFFFFFFF5E
:1002B000FFFFFFFFFFFFFFFFFFFFFFFFFFFFFFFF4E
:1002C000FFFFFFFFFFFFFFFFFFFFFFFFFFFFFFFF3E
:1002D000FFFFFFFFFFFFFFFFFFFFFFFFFFFFFFFF2E
:1002E000FFFFFFFFFFFFFFFFFFFFFFFFFFFFFFFF1E
:1002F000FFFFFFFFFFFFFFFFFFFFFFFFFFFFFFFF0E
:10030000FFFFFFFFFFFFFFFFFFFFFFFFFFFFFFFFFD
:10031000FFFFFFFFFFFFFFFFFFFFFFFFFFFFFFFFED
:10032000FFFFFFFFFFFFFFFFFFFFFFFFFFFFFFFFDD
:10033000FFFFFFFFFFFFFFFFFFFFFFFFFFFFFFFFCD
:10034000FFFFFFFFFFFFFFFFFFFFFFFFFFFFFFFFBD
:10035000FFFFFFFFFFFFFFFFFFFFFFFFFFFFFFFFAD
:10036000FFFFFFFFFFFFFFFFFFFFFFFFFFFFFFFF9D
:10037000FFFFFFFFFFFFFFFFFFFFFFFFFFFFFFFF8D
:10038000FFFFFFFFFFFFFFFFFFFFFFFFFFFFFFFF7D
:10039000FFFFFFFFFFFFFFFFFFFFFFFFFFFFFFFF6D
:1003A000FFFFFFFFFFFFFFFFFFFFFFFFFFFFFFFF5D
:1003B000FFFFFFFFFFFFFFFFFFFFFFFFFFFFFFFF4D
:1003C000FFFFFFFFFFFFFFFFFFFFFFFFFFFFFFFF3D
:1003D000FFFFFFFFFFFFFFFFFFFFFFFFFFFFFFFF2D
:1003E000FFFFFFFFFFFFFFFFFFFFFFFFFFFFFFFF1D
:1003F000FFFFFFFFFFFFFFFFFFFFFFFFFFFFFFFF0D
:10040000FFFFFFFFFFFFFFFFFFFFFFFFFEFFFFFFFD
:10041000EFF309800E4B1A6820381060F0C0444694
:100420004D4656465F46F0C008B572B600F00CFD6A
:1004300062B60CBC116808681030F0C8A046A94626
:10044000B246BB4680F309882038F0C81847C0463A
:10045000F4F0FF1FC046C0460FB480B582B000AFB5
:100460000C4B1B78002B02D101235B420BE01423C1
:10047000FB183B603A683969074B180001F0A7FE8A
:1004800003007B607B681800BD4602B080BC08BCDE
:1004900004B0184790F0FF1F9D04000090B583B092
:1004A00000AF7860094B1B78002B02D101235B421F
:1004B00008E0064B9C68054B5B68391D012218005B
:1004C000A04701231800BD4603B090BD90F0FF1F68
:1004D00080B500AF234B986A224BDB6A00221900DB
:1004E00002F010F8204B1B680A2B02D802F065F8C6
:1004F00005E01D4B1B689BB2180002F06EF8194B0B
:10050000986A184BDB6A0122190001F0FBFF164BB9
:100510001B680A2B02D802F050F805E0124B1B684A
:100520009BB2180002F059F80E4B986A0D4BDB6A2B
:100530000022190001F0E6FF0B4B1B6864225343B5
:100540000A2B02D802F039F808E0074B1B689BB26F
:10055000642253439BB2180002F03FF8C046BD46E8
:1005600080BDC046A4F0FF1FECF0FF1F80B584B033
:1005700000AFF860B9607A603B60FB68DAB2094BA3
:100580001A70BB68DAB2074B5A707B68DAB2054B57
:100590009A703B68DAB2034BDA70C046BD4604B0CD
:1005A00080BDC046A0F0FF1F80B584B000AF78606A
:1005B000714B00221A700023FB6018E07A68FB6818
:1005C000DB00D318043319686C4BFA68D200D150A1
:1005D0007A68FB68DB00D31808331A686749FB6840
:1005E000DB00CB1804331A60FB680133FB60FB6847
:1005F000032BE3DD7B685A6A604B1A627B689A6A58
:100600005E4B5A627B68DA6A5C4B9A627B681A6B53
:100610005A4BDA627B685A78594B1A70584B1B78E0
:10062000012B06D9544B1B7808221343DAB2524BE4
:100630001A707B681B781A007B681B784033402156
:100640000020FFF793FF7B689B78002B0AD07B6824
:100650005B78012B06D1484B1B7804221343DAB296
:10066000454B1A70322000F01DFA444B186A434B78
:100670005B6A0022190001F045FF404B986A3F4B2E
:10068000DB6A0022190001F03DFF032000F0FCF8B6
:100690003C4B1B683C4A53430A2B02D801F08DFFA8
:1006A00008E0384B1B689BB2374A53439BB2180093
:1006B00001F093FF032000F0E7F8324B1B68324A49
:1006C00053430A2B02D801F078FF08E02D4B1B683A
:1006D0009BB22D4A53439BB2180001F07EFF0320CA
:1006E00000F0D2F8274B1B68962253430A2B02D8FE
:1006F00001F063FF08E0234B1B689BB29622534333
:100700009BB2180001F069FF022000F0BDF81A4BFF
:100710001B7820221343DBB2180000F073F81B4B48
:1007200004221A7000F058F800F034F8184B022236
:100730001A70174B1B7804221343DBB2180000F029
:1007400061F8104B1A6813009B009B189A009B18C5
:100750001B010A2B02D801F030FF09E0094B1B688E
:100760009BB2C822520053439BB2180001F035FFE0
:10077000C046BD4604B080BDD8F1FF1FA4F0FF1FE6
:10078000DBF1FF1FECF0FF1F94110000D9F1FF1FF8
:10079000DAF1FF1F80B500AF012000F033F80D4BF8
:1007A0001A6813005B019B1A9B009B181B010A2B04
:1007B00002D801F002FF09E0064B1B689BB2FA2247
:1007C000D20053439BB2180001F007FFC046BD465C
:1007D00080BDC046ECF0FF1F80B500AF084B1B7812
:1007E00004221343DAB2064B1A70054B1B78082219
:1007F0001343DBB2180000F005F8C046BD4680BDCB
:10080000D9F1FF1F80B582B000AF0200FB1D1A7046
:100810000B4B186A0A4B5B6A0022190001F072FE4A
:10082000FB1D1B781B09DBB2180000F02DF8FB1D27
:100830001B78180000F028F8C046BD4602B080BD05
:10084000A4F0FF1F80B582B000AF0200FB1D1A703C
:100850000C4B186A0B4B5B6A0122190001F052FE27
:10086000FB1D1B781B09DBB2180000F00DF8FB1D07
:100870001B78180000F008F801231800BD4602B0EC
:1008800080BDC046A4F0FF1F80B584B000AF020059
:10089000FB1D1A700B23FB1804221A700023FB6047
:1008A00018E0124BFA68D200D058104AFB68DB00FF
:1008B000D31804331968FB1D1A78FB681A4113001A
:1008C000DBB201221340DBB21A0001F01BFEFB6811
:1008D0000133FB600B23FB181B78FA689A42E0DBBC
:1008E000FFF7F6FDC046BD4604B080BDA4F0FF1F73
:1008F00080B582B000AF264B180001F03AFE02002E
:100900000423134018D0234B1B683A1D0021180004
:1009100001F043FF204B1B685A1C1F4B1A601D4BF4
:100920001B683A1D1100180001F0D2FE184B04217B
:10093000180001F029FE1FE0154B180001F019FE08
:1009400002000823134017D0144B1B683A1D0021E6
:10095000180001F022FF124B1B685A1C104B1A6042
:100960000E4B1B683A1D1100180001F0B1FE084B38
:100970000821180001F008FE7B68002B03D0094B0A
:10098000802252051A60C046BD4602B080BDC046F6
:1009900000C00440D4F0FF1FDCF0FF1FD8F0FF1FA1
:1009A000E0F0FF1F04ED00E080B500AF134B1B78B3
:1009B000002B08D0124B1B699AB2124B1A800F4BB6
:1009C00000221A7012E00E4B1B699AB20E4B1A806D
:1009D0000E4B1B68180000F033F9031E03D00C4BBC
:1009E000802252051A60054B01221A70044B012126
:1009F000180001F0D6FDC046BD4680BD8CF0FF1F3B
:100A000000A00340D4F1FF1FD6F1FF1FE4F0FF1F49
:100A100004ED00E080B500AF00F0E6FB02000D4BF6
:100A20001A600C4B1A68FA239900100001F0ACF917
:100A300003001A00084B1A60064B1B680749180090
:100A400001F0A2F903001A00054B1A60C046BD462A
:100A500080BDC046E8F0FF1FF0F0FF1F40420F00CE
:100A6000ECF0FF1F80B582B000AF786008E00B4B60
:100A7000180001F0B2FD7B68094A944663447B602C
:100A80007B68064A9342F2D87B689BB2180001F05B
:100A9000A4FDC046BD4602B080BDC04660EA00006D
:100AA000A015FFFF80B582B000AF0200BB1D1A8009
:100AB00009E0094B1B681800FFF7D4FFBB1D1A881B
:100AC000BB1D013A1A80BB1D1B88002BF1D1C0460B
:100AD000BD4602B080BDC046F0F0FF1F80B58EB0AD
:100AE00000AF01F05CFF01F04EFF01F053FFFFF794
:100AF00091FF3B1D02225A703B1D10221A703B1DB4
:100B000000229A703B1D194A5A603B1D04229A60CC
:100B10003B1D164ADA603B1D05221A613B1D144A33
:100B20005A613B1D08229A613B1D114ADA613B1D47
:100B300009221A623B1D0D4A5A623B1D0D229A6220
:100B40003B1D0C4ADA623B1D05221A633B1D18004F
:100B5000FFF72AFD084B180001F0F6FC96235B0016
:100B60001800FFF79FFF01F0E7FCF7E700F00F40E8
:100B700080F00F40C0F00F40CC29000004207146E7
:100B8000084202D0EFF3098001E0EFF308808169A9
:100B90000A88054B9A4200D0FEE70231816120218C
:100BA00001607047C0460000ABBE000080B582B057
:100BB00000AF01F083FD03007B6000F09FF8031E8F
:100BC00003D0064B802252051A607B68180001F0A2
:100BD0007BFDC046BD4602B080BDC04604ED00E0CE
:100BE00080B584B000AF78600023FB607B68BB6099
:100BF0007B68002B01D172B6FEE7BB685A690E4BC9
:100C00009A4201D1012300E00023002B0FD0BB68E2
:100C10009A6A0A4B9A420AD0BB689B6A002B01D1A0
:100C2000012300E00023002B01D00123FB60FB68BF
:100C30001800BD4604B080BD78F1FF1F64F1FF1FAE
:100C400080B586B000AF786000237B617B683B6134
:100C50007B68002B01D172B6FEE701F02FFD030087
:100C6000FB603B691800FFF7BBFF031E32D01E4B31
:100C70001B68002B26D13B69DA6A1C4B1B68DB6AB8
:100C80009A4201D301237B613B690433180001F0D0
:100C9000E8FC3B69DA6A164B1B689A4203D93B6948
:100CA000DA6A134B1A603B69DA6A13009B009B18DF
:100CB0009B00104A9A183B6904331900100001F098
:100CC000AEFC07E03B6918331A000B4B110018000B
:100CD00001F0A5FCFB68180001F0F6FC7B69180028
:100CE000BD4606B080BDC046A4F1FF1FF4F0FF1F53
:100CF00090F1FF1FF8F0FF1F64F1FF1F80B586B071
:100D000000AF00237B61454B1B68002B00D075E0D2
:100D1000434B1B6801333B61414B3A691A603B69A5
:100D2000002B17D13F4B1B681B68002B01D072B6FC
:100D3000FEE73C4B1B68FB603B4B1A68394B1A6063
:100D4000394BFA681A60394B1B685A1C374B1A60CA
:100D500000F028F9364B1B683A699A4253D3314B5D
:100D60001B681B68002B01D1012300E00023002B2E
:100D700004D02F4B012252421A6044E0294B1B68D9
:100D8000DB68DB68BB60BB685B687B603A697B687B
:100D90009A4203D2264B7A681A6034E0BB68043367
:100DA000180001F05EFCBB689B6A002B04D0BB6896
:100DB0001833180001F055FCBB68DA6A1D4B1B683C
:100DC0009A4203D9BB68DA6A1A4B1A60BB68DA6ABE
:100DD00013009B009B189B00174A9A18BB680433AA
:100DE0001900100001F01BFCBB68DA6A134B1B688A
:100DF000DB6A9A42B3D301237B61B0E7104B1B68D7
:100E00005A1C0F4B1A600F4B1B68002B01D001239B
:100E10007B617B691800BD4606B080BDA4F1FF1F51
:100E20008CF1FF1F5CF1FF1F60F1FF1F9CF1FF1FA2
:100E3000A0F1FF1F90F1FF1FF8F0FF1FF4F0FF1F5C
:100E400094F1FF1F98F1FF1F80B582B000AF224BD5
:100E50001B68002B03D0214B01221A6037E01F4B87
:100E600000221A601E4B1B687B6007E07B68002B2A
:100E700001D172B6FEE77B68013B7B6019497A6855
:100E800013009B009B189B005B58002BEED07A68E8
:100E900013009B009B189B00124A9B183B603B6809
:100EA0005B685A683B685A603B685A683B6808331D
:100EB0009A4204D13B685B685A683B685A603B6859
:100EC0005B68DA68084B1A60054B7A681A60C0469E
:100ED000BD4602B080BDC046A4F1FF1F98F1FF1FC0
:100EE00090F1FF1FF8F0FF1FF4F0FF1F80B584B0F2
:100EF00000AF78607B68DB68DB68BB60BB68002B99
:100F000001D172B6FEE7BB681833180001F0A9FBE7
:100F10001E4B1B68002B1DD1BB680433180001F069
:100F2000A0FBBB68DA6A1A4B1B689A4203D9BB68FC
:100F3000DA6A174B1A60BB68DA6A13009B009B18C9
:100F40009B00144A9A18BB6804331900100001F082
:100F500066FB07E0BB6818331A000F4B110018003E
:100F600001F05DFBBB68DA6A0C4B1B68DB6A9A42D6
:100F700005D90123FB600A4B01221A6001E000231E
:100F8000FB60FB681800BD4604B080BDA4F1FF1FE4
:100F900090F1FF1FF8F0FF1F64F1FF1FF4F0FF1F37
:100FA00098F1FF1F80B582B000AF0E4B1B681B6825
:100FB000002B01D1012300E00023002B04D00A4BB9
:100FC000012252421A6008E0064B1B68DB68DB68AE
:100FD0007B607B685A68044B1A60C046BD4602B00D
:100FE00080BDC0465CF1FF1FA0F1FF1F80B582B03D
:100FF00000AF7860084B1B68084A134019007B68F3
:101000009A04C0231B031A40034B0A431A60C046CC
:10101000BD4602B080BDC04600700440FFFFF3FF34
:1010200080B582B000AF7860084A094BD358094AAE
:101030001A407B68190480235B020B400349134369
:10104000034A8B50C046BD4602B080BD00700440CC
:1010500004100000FFFFFEFF80B500AF074B1B68C8
:10106000002B05D1064B074A0748E12100F070FB31
:10107000024B1B681800BD4680BDC046A8F1FF1F8B
:10108000D8290000202A0000E429000080B582B0A1
:1010900000AFFFF7E1FF03007B607B68002B01D10D
:1010A0007B683FE0214B1B78DBB2DB08DAB2FB1C2C
:1010B00007210A401A70FB1C1B787A68DA4013007B
:1010C0007B601A4B5B78DBB21B09DAB2BB1C0321D5
:1010D0000A401A70BB1C1B78002B21D0FB1C1B780C
:1010E000062B0AD002DC002B17DB02E0072B0CD00A
:1010F00013E07B685B097B6013E07B6814211800B8
:1011000000F042FE03007B600BE07B680C211800BE
:1011100000F03AFE03007B6003E000237B6000E008
:10112000C0467B681800BD4602B080BD0040064046
:1011300080B500AF0B4B9B79DBB21A000123134043
:1011400002D1094B1B6809E0084B1A68054B1B7A52
:10115000DBB25B0807210B40DA4013001800BD46E4
:1011600080BDC0460040064080F0FF1F84F0FF1F96
:1011700080B500AF074B9B79DBB21A0010231340F8
:1011800003D1FFF783FF030001E0034B1B68180046
:10119000BD4680BD0040064080F0FF1F80B584B092
:1011A00000AF78607B680E4A934204D80F23FB1887
:1011B00000221A700CE07B680A4A934204D80F237D
:1011C000FB1801221A7003E00F23FB1802221A7089
:1011D0000F23FB181B781800BD4604B080BDC04625
:1011E0009798000000127A0080B500AF00F02EF84A
:1011F000064A074BD3581B0F0F2213400133190027
:1012000000F0C2FD03001800BD4680BD0070044020
:101210004410000080B582B000AF786009497B6857
:101220005B68094A8B507B681B781800FFF7F8FE53
:101230007B685B781800FFF7D9FEC046BD4602B058
:1012400080BDC046007004404410000080B582B0EC
:1012500000AF174B9B79DBB29B08032213403B6026
:101260003B68012B12D03B68002B0AD03B68022B55
:1012700011D03B68032B13D100F05EF803007B60B4
:1012800011E000F017F803007B600CE0FFF750FF5F
:1012900003007B6007E0FFF7DFFE03007B6002E0F6
:1012A00000237B60C0467B681800BD4602B080BD4D
:1012B0000040064080B582B000AF1D4B5B78DBB2CA
:1012C0001A000223134006D1194B9B79DBB21A0096
:1012D0002023134001D0002326E0FFF749FF03003D
:1012E0007B607B68002B01D17B681DE0104BDB78B5
:1012F000DBB25B09DAB2FB1C03210A401A700C4B0B
:10130000DB78DBB2DB09DAB2BB1C01210A401A70C0
:10131000FB1C1978BB1C1A78064B49008A1852002E
:10132000D35A1A007B6853431800BD4602B080BDF3
:1013300000400640382A000080B582B000AF194B4B
:101340009B79DBB21A004023134001D1002325E032
:1013500001F0ECFA03007B607B68002B05D1124B97
:10136000124A1349134800F0F3F90E4B1B79DBB214
:101370001A001F23134001331900786800F004FDA0
:1013800003007B60074B5B79DBB21A001F2313401D
:1013900018331A007B6853437B607B681800BD4696
:1013A00002B080BD004006400C2A0000482A000020
:1013B00055020000E429000090B585B000AF04009C
:1013C00008001100FB1D221C1A70BB1D021C1A70A4
:1013D0007B1D0A1C1A70404B9B79DBB29B080322D1
:1013E0001340FB603C4B9B79DAB20B203B18012188
:1013F0000A401A70384B1B7ADBB25B08DAB20A2457
:101400003B1907210A401A707A1D3B1912781B7884
:101410009A422ED03B181B78012B19D1FB68012B67
:1014200006D02D4B1B78DBB21A00022313400FD0DD
:10143000294B5B78DBB2284A01218B43DBB2537026
:10144000C046254B9B79DBB21A0001231340F8D12B
:10145000214B1B7ADBB22F229343DAB27B1D1B7820
:10146000DB18DBB20E210B40DBB21B491343DBB2AE
:101470000B72194B5B78DBB201229343DAB2BB1DCE
:101480001B7801210B40DBB213491343DBB24B70D5
:10149000114B1B78DBB203229343DAB20E49FB1DDA
:1014A0001B781343DBB20B70FB68012B04D0FB1DD0
:1014B0001B78022213400AD0C046074B9B79DBB24F
:1014C0001A0001231A40BB1D1B789A42F5D1002354
:1014D0001800BD4605B090BD0040064090B585B0EF
:1014E00000AF78607B68002B07D1204C204ABE23D8
:1014F00099002048230000F02BF90F203B18002210
:101500001A707B685B781F221340D9B23B183A18D7
:1015100012780A431A70184A3B181B781371164B3D
:101520005B79DBB21F229343DAB27B689B781F2181
:101530000B40DBB210491343DBB24B710E4B1B79EE
:10154000DAB27B681B781343DBB20B4A40210B43B2
:10155000DBB21371C046084B9B79DBB21A00402303
:101560001340F8D0C046BD4605B090BD182A000013
:101570005C2A0000E429000000400640B0B584B0B9
:1015800000AF78607B681B680F257C191800FFF797
:1015900005FE030023707B681B791B4A19001000AD
:1015A00001F0A3F97B680633174A1900100001F017
:1015B0007DF9164B5B78DBB23C229343DAB27B19A0
:1015C0001B781B01DBB230210B40DBB21343DAB2D4
:1015D0007B685B790D491343DBB24B707B685B79A9
:1015E000002B0DD0084B1B78DBB25BB2002B07DA67
:1015F000C046064B9B79DBB21A0002231340F8D099
:10160000C046BD4604B0B0BD005006400040064094
:1016100080B582B000AF02003960FB1D1A703B68D4
:10162000002B05D1254B264A2649274800F090F883
:10163000264B5B78DBB2254A02218B43DBB2537029
:10164000224B1B78DBB23B221340DBB21F498022C6
:1016500052421343DBB20B70C0461C4B9B79DBB28A
:101660001A001C231340082BF7D1184B5B79DBB20F
:10167000164A40218B43DBB25371C046134B9B7912
:10168000DBB21A0020231340F8D13B681800FFF7A3
:1016900025FF0E4B5B79DBB20C4A40210B43DBB2DA
:1016A0005371C046094B9B79DBB21A0020231340CB
:1016B000F8D000231800BD4602B080BD182A0000F3
:1016C000702A000064050000E42900000040064084
:1016D00080B582B000AF3A60FB1D021C1A70BB1DC2
:1016E0000A1C1A703B68002B05D1144B144A15498B
:1016F000154800F02DF8FB1D1B78180001F01EF9AD
:101700003A68BB1D1B7811001800FFF781FF0F4BD3
:101710001B78DBB20D4A3F210B40DBB21370C04691
:101720000A4B9B79DBB29B0803221340032BF7D1B2
:1017300000231800BD4602B080BDC046182A000034
:10174000842A00000D060000E42900000040064045
:1017500090B587B002AFF860B9607A603B60BC6852
:10176000FA68396803487B6800932300FEF774FE2B
:1017700000BEFDE7982A000080B584B000AFF86095
:10178000B9607A607B68002B05D1144B144A154868
:101790004B21FFF7DDFF7B681B78002B0AD1FB682C
:1017A0005B690121BA6891400A00D2431A40FB6884
:1017B0005A610FE07B685A78B968FB68180001F03D
:1017C000C8F8FB685A690121BB6899400B001A43AD
:1017D000FB685A61C046BD4604B080BD142B0000B2
:1017E0001C2B0000FC2A000080B582B000AF78609E
:1017F00039607B68DB78DBB21A001023134006D116
:101800007B689B78DBB21A002023134006D0094B7B
:101810001B6839687A681000984705E0064B1B681A
:1018200039687A6810009847BFF34F8FC046BD46AD
:1018300002B080BDB4F1FF1FB8F1FF1F80B500AF4B
:10184000044B1B68044A19001000FFF7CDFFC04687
:10185000BD4680BDACF1FF1F0060064080B500AF03
:10186000044B5B68044A19001000FFF7BDFFC04637
:10187000BD4680BDACF1FF1F0070064080B500AFD3
:10188000044B1A68044B1B68044819009047C04673
:10189000BD4680BDC0F1FF1FBCF1FF1F00A0064088
:1018A00080B500AF044B1A68044B5B68044819000C
:1018B0009047C046BD4680BDD0F1FF1FC4F1FF1F59
:1018C00000B0064080B500AF044B1A68044B9B681B
:1018D000044819009047C046BD4680BDD0F1FF1FA7
:1018E000C4F1FF1F00C0064080B500AF034A044B9F
:1018F0000449D150C046BD4680BDC046007004407A
:10190000441000000000031080B582B000AF786082
:10191000034B7A681A60C046BD4602B080BDC0461F
:10192000A8F1FF1F80B582B000AF0200FB1D1A7046
:101930000A4B1B78DBB238229343DAB2FB1D1B78CB
:10194000DB00DBB238210B40DBB204491343DBB2CE
:101950000B70C046BD4602B080BDC0460040064088
:1019600080B500AFFFF7C0FF104B1800FFF706FE71
:101970000F4B1800FFF7C8FF03231800FFF7D2FF33
:101980000C4B1A0000210020FFF7A2FE02230021C9
:1019900000221800FFF710FD074B1800FFF73AFC74
:1019A000064B074A1A60C046BD4680BD402B00006A
:1019B00000127A00332B0000382B000088F0FF1F44
:1019C000006CDC0280B584B000AF78607B681B0CD3
:1019D000084A94466344FB60FB6819687B681B04F3
:1019E0001B0C01229A40FB680A431A60C046BD46A0
:1019F00004B080BD0070044080B584B000AFF860D2
:101A0000B960FB1D1A70FB68BA689200D358094A86
:101A10001A40FB1D1B781902E023DB000B401A4320
:101A20001100FB68BA689200D150C046BD4604B0B0
:101A300080BDC046FFF8FFFF80B590B000AFBA4B45
:101A40001800FFF7BFFFB94B1800FFF7BBFFB84BFB
:101A50001800FFF7B7FFB74B1800FFF7B3FFB64BFF
:101A60001800FFF7AFFF3C217B1801221A707B188A
:101A700000225A707B18B1481A000421FFF77CFE3F
:101A800038217B1801221A707B1800225A707B18AB
:101A9000AA481A000521FFF76FFE34217B180122A6
:101AA0001A707B1800225A707B18A4481A000D2166
:101AB000FFF762FE30217B1801221A707B1800228A
:101AC0005A707B189D481A001021FFF755FE2C21F3
:101AD0007B1801221A707B1800225A707B189848D4
:101AE0001A000021FFF748FE28217B1801221A70F6
:101AF0007B1800225A707B1891481A000321FFF7C7
:101B00003BFE24217B1801221A707B1800225A7098
:101B10007B188B481A000421FFF72EFE20217B182A
:101B200001221A707B1800225A707B1884481A0010
:101B30000721FFF721FE1C217B1801221A707B1858
:101B400000225A707B187E481A000821FFF714FE05
:101B500018217B1801221A707B1800225A707B18FA
:101B600077481A000921FFF707FE14217B1801228C
:101B70001A707B1800225A707B1872481A000521CF
:101B8000FFF7FAFD10217B1800221A707B18002243
:101B90005A707B186C481A001521FFF7EDFD0C21D7
:101BA0007B1800221A707B1800225A707B18664836
:101BB0001A001621FFF7E0FD08217B1800221A7099
:101BC0007B1800225A707B185F481A001721FFF714
:101BD000D3FD3B1D00221A703B1D00225A703B1D95
:101BE00059481A001D21FFF7C7FD3B0000221A705B
:101BF0003B0000225A703B0053481A001E21FFF799
:101C0000BBFD524B022201211800FFF7F5FE4F4B9E
:101C100003220C211800FFF7EFFE4C4B01220D218F
:101C20001800FFF7E9FE494B012210211800FFF7C9
:101C3000E3FE464B022202211800FFF7DDFE434B74
:101C4000012204211800FFF7D7FE404B0122052195
:101C50001800FFF7D1FE3E4B032201211800FFF7C9
:101C6000CBFE3B4B032202211800FFF7C5FE394B88
:101C7000012200211800FFF7BFFE364B012203218D
:101C80001800FFF7B9FE334B012204211800FFF7BB
:101C9000B3FE304B012207211800FFF7ADFE2D4B9C
:101CA000012208211800FFF7A7FE2A4B0122092173
:101CB0001800FFF7A1FE284B012205211800FFF7AD
:101CC0009BFE264B012215211800FFF795FE234BA2
:101CD000012216211800FFF78FFE204B0122172149
:101CE0001800FFF789FE1D4B01221D211800FFF788
:101CF00083FE1A4B01221E211800FFF77DFE184AB1
:101D0000184BD3581649184A1340164A8B50144A98
:101D1000164BD358124907229343144A8B50C0469E
:101D2000BD4610B080BDC046090038100A0038100A
:101D30000B0038100C0038100D00381000F00F4068
:101D400080F00F40C0F00F4000F10F4000900440C1
:101D500000A0044000B0044000C0044000D0044093
:101D6000007004400C100000FFFFEBFF101000009B
:101D700080B500AF034A88235B010021D150C046E3
:101D8000BD4680BD00700440002243088B4274D3DE
:101D900003098B425FD3030A8B4244D3030B8B426C
:101DA00028D3030C8B420DD3FF22090212BA030C75
:101DB0008B4202D31212090265D0030B8B4219D356
:101DC00000E0090AC30B8B4201D3CB03C01A524176
:101DD000830B8B4201D38B03C01A5241430B8B42BE
:101DE00001D34B03C01A5241030B8B4201D30B03A7
:101DF000C01A5241C30A8B4201D3CB02C01A5241CE
:101E0000830A8B4201D38B02C01A5241430A8B4290
:101E100001D34B02C01A5241030A8B4201D30B0279
:101E2000C01A5241CDD2C3098B4201D3CB01C01A93
:101E3000524183098B4201D38B01C01A524143099D
:101E40008B4201D34B01C01A524103098B4201D38B
:101E50000B01C01A5241C3088B4201D3CB00C01AF8
:101E6000524183088B4201D38B00C01A5241430870
:101E70008B4201D34B00C01A5241411A00D2014695
:101E8000524110467047FFE701B5002000F0F0F81E
:101E900002BDC0460029F7D076E7704703460B43E2
:101EA0007FD4002243088B4274D303098B425FD353
:101EB000030A8B4244D3030B8B4228D3030C8B427F
:101EC0000DD3FF22090212BA030C8B4202D3121265
:101ED000090265D0030B8B4219D300E0090AC30B3A
:101EE0008B4201D3CB03C01A5241830B8B4201D3E7
:101EF0008B03C01A5241430B8B4201D34B03C01AD0
:101F00005241030B8B4201D30B03C01A5241C30A47
:101F10008B4201D3CB02C01A5241830A8B4201D3B8
:101F20008B02C01A5241430A8B4201D34B02C01AA2
:101F30005241030A8B4201D30B02C01A5241CDD247
:101F4000C3098B4201D3CB01C01A524183098B4292
:101F500001D38B01C01A524143098B4201D34B017B
:101F6000C01A524103098B4201D30B01C01A5241DE
:101F7000C3088B4201D3CB00C01A524183088B4265
:101F800001D38B00C01A524143088B4201D34B004E
:101F9000C01A5241411A00D20146524110467047C0
:101FA0005DE0CA0F00D04942031000D340425340C5
:101FB00000229C4603098B422DD3030A8B4212D385
:101FC000FC22890112BA030A8B420CD389019211B7
:101FD0008B4208D3890192118B4204D389013AD0F4
:101FE000921100E08909C3098B4201D3CB01C01AC9
:101FF000524183098B4201D38B01C01A52414309DC
:102000008B4201D34B01C01A524103098B4201D3C9
:102010000B01C01A5241C3088B4201D3CB00C01A36
:10202000524183088B4201D38B00C01A5241D9D24E
:1020300043088B4201D34B00C01A5241411A00D2CF
:102040000146634652415B10104601D34042002BCB
:1020500000D54942704763465B1000D3404201B54A
:10206000002000F005F802BD0029F8D016E77047FF
:102070007047C04680B586B000AFB9607A603B60FB
:102080000F23FB18021C1A70BB687B610DE00F2345
:10209000FB181A783B6A100098473B681B685A1C6B
:1020A0003B681A607B6901337B617A697B689A427D
:1020B000EDDBC046BD4606B080BD80B58CB000AF3C
:1020C000F860B9607A603B600023FB61FB68BB612C
:1020D000BB695A1CBA6100221A707B68002B35D08C
:1020E000BB681B68FB62FB6A002B2BD1BB693022EB
:1020F0001A70FB690133FB61FB6964E03968F86AB7
:10210000FFF7CCFE03007B617B693A685343FA6AB0
:10211000D31ABB62BB6A002B06DABB6A3B623B6A1E
:102120003022D31ABB6202E0BB6A3033BB627B69E8
:10213000FB62BB695A1CBA61BA6AD2B21A70FB69F7
:102140000133FB61FB6A002BD8D13BE0BB681B6805
:102150007B627B6A002B32D1BB6930221A70FB692B
:102160000133FB61FB692EE03B681900786AFFF7D9
:102170000BFE03003B613B683A6953437A6AD31A0A
:102180003B623B6A092B03D83B6A30333B620BE06E
:102190003823FB181B78002B01D0412300E061237A
:1021A0003A6A9B180A3B3B623B697B62BB695A1CDB
:1021B000BA613A6AD2B21A70FB690133FB617B6A79
:1021C000002BD1D1FB691800BD460CB080BD90B585
:1021D0009DB002AFF860B9607A6000233B660023CF
:1021E000FB650023BB614A23FB1800221A70002301
:1021F0003B61BB687B6679E17B6C252B07D07A6CF1
:10220000FB6810009847BB690133BB616BE14B234E
:10221000FB1801221A7000237B650023BB651BE0BD
:102220007B6E01337B667B6E1B787B647B6C2F2B14
:102230000DDD7B6C392B0ADC7A6D13009B009B183B
:102240005B001A007B6CD318303B7B6504E07B6E2F
:10225000013B7B660123BB65BB6D002BE0D00623F1
:102260003B657B6E01337B667B6E1B782E2B24D106
:1022700000233B650023BB651BE07B6E01337B665F
:102280007B6E1B787B647B6C2F2B0DDD7B6C392B7D
:102290000ADC3A6D13009B009B185B001A007B6CF4
:1022A000D318303B3B6504E07B6E013B7B6601232A
:1022B000BB65BB6D002BE0D002E07B6E013B7B6613
:1022C0007B6E01337B667B6E1B787B647B6C642B3F
:1022D0001BD07B6C692B18D07B6C662B15D07B6C6C
:1022E000462B12D07B6C782B0FD07B6C582B0CD0EC
:1022F0007B6C6F2B09D07B6C622B06D07B6C702BB8
:1023000003D07B6C752B00D0A9E07B6C642B02D0D2
:102310007B6C692B16D17B681A1D7A601B687B6108
:102320001423F9181C2438194B23FB181B7800932D
:102330000A230122FFF7C1FE0300FB653A19FB6D7A
:10234000D3183B667B6C582B02D07B6C782B1DD14D
:102350007B6C782B03D14B23FB1800221A707B680F
:102360001A1D7A601B683B611023F9181C24381968
:102370004B23FB181B78009310230022FFF79DFED0
:102380000300FB653A19FB6DD3183B667B6C6F2B22
:1023900008D07B6C622B05D07B6C702B02D07B6CE1
:1023A000752B3ED17B681A1D7A601B683B617B6C84
:1023B0006F2B0DD07B6C6F2B03DC7B6C622B0CD0F6
:1023C0001AE07B6C702B0DD07B6C752B0FD013E05B
:1023D0004A23FB1808221A700EE04A23FB18022237
:1023E0001A7009E04A23FB1810221A7004E04A23ED
:1023F000FB180A221A70C0464A23FB181A781023C9
:10240000F9181C2438194B23FB181B780093130070
:102410000022FFF752FE0300FB653A19FB6DD3184B
:102420003B667A6D1823F818F96DFB68009303007A
:102430002020FFF71FFE3B6E002B54D00AE03B6EBE
:102440005A1E3A661B781A00FB6810009847BB6951
:102450000133BB613B6E1B78002BF0D143E07B6CFA
:10246000632B0DD17B681A1D7A601B68DBB23B645D
:102470003A6CFB6810009847BB690133BB6132E0DE
:102480007B6C732B28D17B681A1D7A601B68FB64F8
:10249000FB6C002B27D0FB6C180000F090FA0300B7
:1024A000FB657A6D1823F818F96DFB68009303003B
:1024B0002020FFF7DFFD0AE0FB6C5A1CFA641B7852
:1024C0001A00FB6810009847BB690133BB61FB6CC5
:1024D0001B78002BF0D106E07A6CFB68100098475F
:1024E000BB690133BB617B6E01337B667B6E1B78FE
:1024F0007B647B6C002B00D07EE6BB691800BD4678
:102500001BB090BD80B584B000AFF860B960FB1D12
:102510001A70FB1D1B78002B05D10122BB689A4065
:10252000FB689A6004E00122BB689A40FB685A602D
:10253000C046BD4604B080BD80B500AF1820FEF790
:1025400061F9C046BD4680BD80B582B000AF7860FD
:1025500007E07B681B781800FEF774F97B6801338D
:102560007B607B681B78002BF3D1C046BD4602B070
:1025700080BD80B582B000AF78607B68A0229B5898
:102580001800BD4602B080BD80B582B000AF786053
:1025900039607B68A0213A685A50C046BD4602B0F7
:1025A00080BD80B582B000AF786039607B683A68E2
:1025B0001A65C046BD4602B080BDC046C046C04692
:1025C0007047C0460020C046C046C046C0460130E5
:1025D0000928F8D9C0467047C04680B582B000AF20
:1025E0000200BB1D1A8006E0FFF7ECFFBB1DBA1D01
:1025F0001288633A1A80BB1D1B88632BF4D806E04F
:10260000FFF7DBFFBB1DBA1D12880A3A1A80BB1DFB
:102610001B880A2BF4D8C046BD4602B080BD80B5E9
:1026200084B000AF786039607B685B68FB603B68B2
:10263000FA685A60FB689A683B689A60FB689B6816
:102640003A685A60FB683A689A603B687A681A612F
:102650007B681B685A1C7B681A60C046BD4604B084
:1026600080BD80B584B000AF78607B681B69FB607B
:102670007B685B687A6892689A607B689B687A6816
:1026800052685A60FB685B687A689A4203D17B683B
:102690009A68FB685A607B6800221A61FB681B68B5
:1026A0005A1EFB681A60FB681B681800BD4604B020
:1026B00080BD80B500AFC046BD4680BDEFF3108041
:1026C00072B670470023180080F310887047C04628
:1026D00080B588B000AF786039607B68BB61BB694A
:1026E000002B01D172B6FEE7BB691B6C002B01D039
:1026F00072B6FEE7BB691B68002B03D1BB695B6840
:10270000002B01D1012300E00023002B01D172B680
:10271000FEE7FFF7D3FF03007B61BB699B6B3B6167
:10272000BB69DB6B3A699A422CD20F203B18BA691D
:102730004521525C1A703B695A1CBB699A633B186D
:102740001B785BB2013311D1BB695B6A002B16D0D9
:10275000BB6924331800FEF7C9FB031E0FD03B688A
:10276000002B0CD03B6801221A6008E00F23FB18F5
:102770001B780133DBB259B2BB694522995401235E
:10278000FB6101E00023FB617B691800FFF79CFF00
:10279000FB691800BD4608B080BD90B58BB000AF96
:1027A000F860B9607A60FB683B623B6A002B01D13C
:1027B00072B6FEE7BB68002B03D13B6A1B6C002B93
:1027C00001D1012300E00023002B01D172B6FEE706
:1027D000FFF774FF0300FB613B6A9B6BBB61BB6946
:1027E000002B32D017243B193A6A4421525C1A70EC
:1027F000BA683B6A1100180000F032F8BB695A1E33
:102800003B6A9A633B191B785BB2013311D13B6A77
:102810001B69002B16D03B6A10331800FEF766FBCD
:10282000031E0FD07B68002B0CD07B6801221A603E
:1028300008E01723FB181B780133DBB259B23B6A5F
:102840004422995401237B6201E000237B62FB69EF
:102850001800FFF739FF7B6A1800BD460BB090BD2A
:1028600080B582B000AF786039607B681B6C002B4C
:1028700018D07B68DA687B681B6CD2187B68DA60DA
:102880007B68DA687B685B689A4203D37B681A6866
:102890007B68DA607B68D9687B681A6C3B681800D3
:1028A00000F084F8C046BD4602B080BD80B584B05B
:1028B00000AF786039600F203B187A6812781A7080
:1028C0003B183A1812785F210A401A703B68197851
:1028D0003B183A1812780A431A707B683A18127833
:1028E0001A70C046BD4604B080BD80B584B000AF4C
:1028F00078600A00FB1C1A700F203B187A68127867
:102900001A703B183A1812780F218A431A703B1834
:102910003918FA1C097812780A431A707B683A1839
:1029200012781A70C046BD4604B080BD80B500AFB5
:10293000FEF792FB03001800BD4680BD80B582B053
:1029400000AF0200FB1D1A7000231800BD4602B044
:1029500080BD80B584B000AFF860B960FB1D1A700F
:10296000FB1D1B78002B05D10122BB689A40FB6838
:102970009A6004E00122BB689A40FB685A60C04636
:10298000BD4604B080BD80B500AFFEF7E9FFC0468C
:10299000BD4680BD80B500AFC046BD4680BD80B598
:1029A00000AFFFF749F8C046BD4680BD002310B513
:1029B0009A4200D110BDCC5CC4540133F8E7002327
:1029C000C25C0133002AFBD1581E70474F6C612056
:1029D0006D756E646F00FFFF675F7874616C3046E1
:1029E000726571002E2E2F647269766572732F6680
:1029F000736C5F636C6F636B2E630000675F78744A
:102A0000616C333246726571000000006D6367705F
:102A10006C6C30636C6B0000636F6E66696700FFFF
:102A2000434C4F434B5F4765744D63674578744330
:102A30006C6B4672657100FF8002DC020005B80510
:102A400080079508000A710B434C4F434B5F476565
:102A500074506C6C304672657100FFFF434C4F43FD
:102A60004B5F456E61626C65506C6C3000FFFFFF20
:102A7000434C4F434B5F5365745062654D6F6465C3
:102A800000FFFFFF434C4F434B5F426F6F74546F27
:102A90005065654D6F646500415353455254204560
:102AA00052524F52202220257320223A2066696C10
:102AB000652022257322204C696E65202225642220
:102AC0002066756E6374696F6E206E616D6520227D
:102AD000257322200A00FFFF696E7374616E6365BF
:102AE000203C2041525241595F53495A4528735F57
:102AF0006770696F42617365732900002E2E2F6421
:102B00007269766572732F66736C5F6770696F2E7A
:102B100063000000636F6E66696700FF4750494FAE
:102B20005F50696E496E697400FFFFFF0702000085
:102B3000030100000100FFFF01030000000001107D
:082B400000127A00000480007D
:102B48000080000000093D000000400101FFFFFF78
:04000003000000D524
:00000001FF
