:1000000000300020D5000000430100005D0A000020
:1000100000000000000000000000000000000000E0
:10002000000000000000000000000000F9240000B3
:100030000000000000000000110400008D0A000014
:100040004F010000570100005F0100006701000040
:100050006F010000770100007F01000087010000B0
:100060008F010000970100009F010000A701000020
:10007000AF010000B7010000BF010000C701000090
:10008000CF010000D7010000DF010000E701000000
:10009000EF010000F7010000FF010000070200006F
:1000A0000F020000170200001F02000027020000DC
:1000B0002F020000370200003F020000470200004C
:1000C000F828000080F0FF1F0C0000008CF0FF1FDC
:1000D000C401000010B572B601F09EFC0D4B07E0A4
:1000E000186859681C000C349A6800F019F823004D
:1000F000094A9342F4D306E018681C000834596892
:1001000000F017F82300054A9342F5D362B602F0D7
:1001100082FAFEE7C0000000CC000000D40000001E
:1001200010B50023934203D210C810C10433F9E77D
:1001300010BD00238B4203D2002204C00433F9E730
:100140007047FEE7FEE7FEE7FEE7FEE7FEE710B5D5
:10015000FFF7FCFF10BD10B5FFF7F8FF10BD10B59D
:10016000FFF7F4FF10BD10B5FFF7F0FF10BD10B59D
:10017000FFF7ECFF10BD10B5FFF7E8FF10BD10B59D
:10018000FFF7E4FF10BD10B5FFF7E0FF10BD10B59D
:1001900001F0A8F910BD10B501F0B4F910BD10B50B
:1001A000FFF7D4FF10BD10B5FFF7D0FF10BD10B59D
:1001B00001F0B8F910BD10B501F0C6F910BD10B5C9
:1001C00001F0D4F910BD10B5FFF7C0FF10BD10B598
:1001D000FFF7BCFF10BD10B5FFF7B8FF10BD10B59D
:1001E000FFF7B4FF10BD10B5FFF7B0FF10BD10B59D
:1001F000FFF7ACFF10BD10B5FFF7A8FF10BD10B59D
:10020000FFF7A4FF10BD10B5FFF7A0FF10BD10B59C
:10021000FFF79CFF10BD10B5FFF798FF10BD10B59C
:10022000FFF794FF10BD10B5FFF790FF10BD10B59C
:10023000FFF78CFF10BD10B5FFF788FF10BD10B59C
:10024000FFF784FF10BD10B5FFF780FF10BDFFFF63
:10025000FFFFFFFFFFFFFFFFFFFFFFFFFFFFFFFFAE
:10026000FFFFFFFFFFFFFFFFFFFFFFFFFFFFFFFF9E
:10027000FFFFFFFFFFFFFFFFFFFFFFFFFFFFFFFF8E
:10028000FFFFFFFFFFFFFFFFFFFFFFFFFFFFFFFF7E
:10029000FFFFFFFFFFFFFFFFFFFFFFFFFFFFFFFF6E
:1002A000FFFFFFFFFFFFFFFFFFFFFFFFFFFFFFFF5E
:1002B000FFFFFFFFFFFFFFFFFFFFFFFFFFFFFFFF4E
:1002C000FFFFFFFFFFFFFFFFFFFFFFFFFFFFFFFF3E
:1002D000FFFFFFFFFFFFFFFFFFFFFFFFFFFFFFFF2E
:1002E000FFFFFFFFFFFFFFFFFFFFFFFFFFFFFFFF1E
:1002F000FFFFFFFFFFFFFFFFFFFFFFFFFFFFFFFF0E
:10030000FFFFFFFFFFFFFFFFFFFFFFFFFFFFFFFFFD
:10031000FFFFFFFFFFFFFFFFFFFFFFFFFFFFFFFFED
:10032000FFFFFFFFFFFFFFFFFFFFFFFFFFFFFFFFDD
:10033000FFFFFFFFFFFFFFFFFFFFFFFFFFFFFFFFCD
:10034000FFFFFFFFFFFFFFFFFFFFFFFFFFFFFFFFBD
:10035000FFFFFFFFFFFFFFFFFFFFFFFFFFFFFFFFAD
:10036000FFFFFFFFFFFFFFFFFFFFFFFFFFFFFFFF9D
:10037000FFFFFFFFFFFFFFFFFFFFFFFFFFFFFFFF8D
:10038000FFFFFFFFFFFFFFFFFFFFFFFFFFFFFFFF7D
:10039000FFFFFFFFFFFFFFFFFFFFFFFFFFFFFFFF6D
:1003A000FFFFFFFFFFFFFFFFFFFFFFFFFFFFFFFF5D
:1003B000FFFFFFFFFFFFFFFFFFFFFFFFFFFFFFFF4D
:1003C000FFFFFFFFFFFFFFFFFFFFFFFFFFFFFFFF3D
:1003D000FFFFFFFFFFFFFFFFFFFFFFFFFFFFFFFF2D
:1003E000FFFFFFFFFFFFFFFFFFFFFFFFFFFFFFFF1D
:1003F000FFFFFFFFFFFFFFFFFFFFFFFFFFFFFFFF0D
:10040000FFFFFFFFFFFFFFFFFFFFFFFFFEFFFFFFFD
:10041000EFF309800E4B1A6820381060F0C0444694
:100420004D4656465F46F0C008B572B600F0EEFB8A
:1004300062B60CBC116808681030F0C8A046A94626
:10044000B246BB4680F309882038F0C81847C0463A
:10045000DCF0FF1FC046C0460FB480B582B000AFCD
:100460000C4B1B78002B02D101235B420BE01423C1
:10047000FB183B603A683969074B180001F0DFFD53
:1004800003007B607B681800BD4602B080BC08BCDE
:1004900004B018478CF0FF1F9D04000090B583B096
:1004A00000AF7860094B1B78002B02D101235B421F
:1004B00008E0064B9C68054B5B68391D012218005B
:1004C000A04701231800BD4603B090BD8CF0FF1F6C
:1004D00080B500AF234B986A224BDB6A00221900DB
:1004E00001F048FF204B1B680A2B02D801F088FF5F
:1004F00005E01D4B1B689BB2180001F091FF194BE2
:10050000986A184BDB6A0122190001F033FF164B81
:100510001B680A2B02D801F073FF05E0124B1B6821
:100520009BB2180001F07CFF0E4B986A0D4BDB6A02
:100530000022190001F01EFF0B4B1B68642253437D
:100540000A2B02D801F05CFF08E0074B1B689BB246
:10055000642253439BB2180001F062FFC046BD46BF
:1005600080BDC046A0F0FF1FD4F0FF1F80B584B04F
:1005700000AFF860B9607A603B60FB68DAB2094BA3
:100580001A70BB68DAB2074B5A707B68DAB2054B57
:100590009A703B68DAB2034BDA70C046BD4604B0CD
:1005A00080BDC0469CF0FF1F80B584B000AF78606E
:1005B000714B00221A700023FB6018E07A68FB6818
:1005C000DB00D318043319686C4BFA68D200D150A1
:1005D0007A68FB68DB00D31808331A686749FB6840
:1005E000DB00CB1804331A60FB680133FB60FB6847
:1005F000032BE3DD7B685A6A604B1A627B689A6A58
:100600005E4B5A627B68DA6A5C4B9A627B681A6B53
:100610005A4BDA627B685A78594B1A70584B1B78E0
:10062000012B06D9544B1B7808221343DAB2524BE4
:100630001A707B681B781A007B681B784033402156
:100640000020FFF793FF7B689B78002B0AD07B6824
:100650005B78012B06D1484B1B7804221343DAB296
:10066000454B1A70322000F08BF9444B186A434B0B
:100670005B6A0022190001F07DFE404B986A3F4BF7
:10068000DB6A0022190001F075FE032000F0FCF87F
:100690003C4B1B683C4A53430A2B02D801F0B0FE86
:1006A00008E0384B1B689BB2374A53439BB2180093
:1006B00001F0B6FE032000F0E7F8324B1B68324A27
:1006C00053430A2B02D801F09BFE08E02D4B1B6818
:1006D0009BB22D4A53439BB2180001F0A1FE0320A8
:1006E00000F0D2F8274B1B68962253430A2B02D8FE
:1006F00001F086FE08E0234B1B689BB29622534311
:100700009BB2180001F08CFE022000F0BDF81A4BDD
:100710001B7820221343DBB2180000F073F81B4B48
:1007200004221A7000F058F800F034F8184B022236
:100730001A70174B1B7804221343DBB2180000F029
:1007400061F8104B1A6813009B009B189A009B18C5
:100750001B010A2B02D801F053FE09E0094B1B686C
:100760009BB2C822520053439BB2180001F058FEBE
:10077000C046BD4604B080BD4CF2FF1FA0F0FF1F75
:100780004FF2FF1FD4F0FF1F941100004DF2FF1F26
:100790004EF2FF1F80B500AF012000F033F80D4B83
:1007A0001A6813005B019B1A9B009B181B010A2B04
:1007B00002D801F025FE09E0064B1B689BB2FA2225
:1007C000D20053439BB2180001F02AFEC046BD463A
:1007D00080BDC046D4F0FF1F80B500AF084B1B782A
:1007E00004221343DAB2064B1A70054B1B78082219
:1007F0001343DBB2180000F005F8C046BD4680BDCB
:100800004DF2FF1F80B582B000AF0200FB1D1A70D1
:100810000B4B186A0A4B5B6A0022190001F0AAFD13
:10082000FB1D1B781B09DBB2180000F02DF8FB1D27
:100830001B78180000F028F8C046BD4602B080BD05
:10084000A0F0FF1F80B582B000AF0200FB1D1A7040
:100850000C4B186A0B4B5B6A0122190001F08AFDF0
:10086000FB1D1B781B09DBB2180000F00DF8FB1D07
:100870001B78180000F008F801231800BD4602B0EC
:1008800080BDC046A0F0FF1F80B584B000AF02005D
:10089000FB1D1A700B23FB1804221A700023FB6047
:1008A00018E0124BFA68D200D058104AFB68DB00FF
:1008B000D31804331968FB1D1A78FB681A4113001A
:1008C000DBB201221340DBB21A0001F053FDFB68DA
:1008D0000133FB600B23FB181B78FA689A42E0DBBC
:1008E000FFF7F6FDC046BD4604B080BDA0F0FF1F77
:1008F00080B500AF00F0F8FA02000D4B1A600C4B07
:100900001A68FA239900100001F0B1FE03001A00E2
:10091000084B1A60064B1B680749180001F0A7FE38
:1009200003001A00054B1A60C046BD4680BDC04694
:10093000D0F0FF1FD8F0FF1F40420F00D4F0FF1F80
:1009400080B582B000AF786008E00B4B180001F072
:1009500067FD7B68094A944663447B607B68064A6E
:100960009342F2D87B689BB2180001F059FDC04653
:10097000BD4602B080BDC04660EA0000A015FFFF82
:1009800080B582B000AF0200BB1D1A8009E0094BA0
:100990001B681800FFF7D4FFBB1D1A88BB1D013A66
:1009A0001A80BB1D1B88002BF1D1C046BD4602B08A
:1009B00080BDC046D8F0FF1F80B58EB000AF01F0FB
:1009C00023FE01F015FE01F01AFEFFF791FF3B1D1B
:1009D00002225A703B1D10221A703B1D00229A7091
:1009E0003B1D1A4A5A603B1D04229A603B1D174A60
:1009F000DA603B1D05221A613B1D154A5A613B1DF9
:100A000008229A613B1D124ADA613B1D09221A62D3
:100A10003B1D0E4A5A623B1D0D229A623B1D0D4A38
:100A2000DA623B1D05221A633B1D1800FFF7BCFD6F
:100A3000094B1900002001F0B7FC96235B00180059
:100A4000FFF79EFF0020FFF7FDFEF6E700F00F40E6
:100A500080F00F40C0F00F403427000004207146A2
:100A6000084202D0EFF3098001E0EFF308808169CA
:100A70000A88054B9A4200D0FEE7023181612021AD
:100A800001607047C0460000ABBE000080B582B078
:100A900000AF01F036FD03007B6000F011F8031E8B
:100AA00003D0064B802252051A607B68180001F0C3
:100AB0002EFDC046BD4602B080BDC04604ED00E03C
:100AC00080B586B000AF00237B61454B1B68002BCF
:100AD00000D075E0434B1B6801333B61414B3A69E1
:100AE0001A603B69002B17D13F4B1B681B68002B1A
:100AF00001D072B6FEE73C4B1B68FB603B4B1A68AB
:100B0000394B1A60394BFA681A60394B1B685A1C0A
:100B1000374B1A6000F0CCF8364B1B683A699A42A2
:100B200053D3314B1B681B68002B01D1012300E01C
:100B30000023002B04D02F4B012252421A6044E0C4
:100B4000294B1B68DB68DB68BB60BB685B687B604C
:100B50003A697B689A4203D2264B7A681A6034E07D
:100B6000BB680433180001F09FFCBB689B6A002B34
:100B700004D0BB681833180001F096FCBB68DA6A31
:100B80001D4B1B689A4203D9BB68DA6A1A4B1A607C
:100B9000BB68DA6A13009B009B189B00174A9A18DF
:100BA000BB6804331900100001F05CFCBB68DA6A12
:100BB000134B1B68DB6A9A42B3D301237B61B0E716
:100BC000104B1B685A1C0F4B1A600F4B1B68002BF5
:100BD00001D001237B617B691800BD4606B080BD52
:100BE00064F1FF1F4CF1FF1F44F1FF1F48F1FF1F8D
:100BF0005CF1FF1F60F1FF1F50F1FF1FE0F0FF1FCE
:100C0000DCF0FF1F54F1FF1F58F1FF1F80B582B0C9
:100C100000AF224B1B68002B03D0214B01221A602E
:100C200037E01F4B00221A601E4B1B687B6007E0F9
:100C30007B68002B01D172B6FEE77B68013B7B60CD
:100C400019497A6813009B009B189B005B58002B86
:100C5000EED07A6813009B009B189B00124A9B18E9
:100C60003B603B685B685A683B685A603B685A68FF
:100C70003B6808339A4204D13B685B685A683B681A
:100C80005A603B685B68DA68084B1A60054B7A6803
:100C90001A60C046BD4602B080BDC04664F1FF1F69
:100CA00058F1FF1F50F1FF1FE0F0FF1FDCF0FF1FA6
:100CB00080B582B000AF0E4B1B681B68002B01D1C2
:100CC000012300E00023002B04D00A4B01225242F2
:100CD0001A6008E0064B1B68DB68DB687B607B689A
:100CE0005A68044B1A60C046BD4602B080BDC0467B
:100CF00044F1FF1F60F1FF1F80B582B000AF786044
:100D0000084B1B68084A134019007B689A04C023EB
:100D10001B031A40034B0A431A60C046BD4602B08B
:100D200080BDC04600700440FFFFF3FF80B582B075
:100D300000AF7860084A094BD358094A1A407B68CB
:100D4000190480235B020B4003491343034A8B5071
:100D5000C046BD4602B080BD0070044004100000D3
:100D6000FFFFFEFF80B500AF064B1B68002B03D1D1
:100D7000054B180000F04CFB024B1B681800BD46E9
:100D800080BDC04668F1FF1F3C27000080B582B0DF
:100D900000AFFFF7E7FF03007B607B68002B01D10A
:100DA0007B683FE0214B1B78DBB2DB08DAB2FB1C2F
:100DB00007210A401A70FB1C1B787A68DA4013007E
:100DC0007B601A4B5B78DBB21B09DAB2BB1C0321D8
:100DD0000A401A70BB1C1B78002B21D0FB1C1B780F
:100DE000062B0AD002DC002B17DB02E0072B0CD00D
:100DF00013E07B685B097B6013E07B6814211800BB
:100E000001F035FC03007B600BE07B680C211800CF
:100E100001F02DFC03007B6003E000237B6000E019
:100E2000C0467B681800BD4602B080BD0040064049
:100E300080B500AF0B4B9B79DBB21A000123134046
:100E400002D1094B1B6809E0084B1A68054B1B7A55
:100E5000DBB25B0807210B40DA4013001800BD46E7
:100E600080BDC0460040064080F0FF1F84F0FF1F99
:100E700080B500AF074B9B79DBB21A0010231340FB
:100E800003D1FFF783FF030001E0034B1B68180049
:100E9000BD4680BD0040064080F0FF1F80B584B095
:100EA00000AF78607B680E4A934204D80F23FB188A
:100EB00000221A700CE07B680A4A934204D80F2380
:100EC000FB1801221A7003E00F23FB1802221A708C
:100ED0000F23FB181B781800BD4604B080BDC04628
:100EE0009798000000127A0080B500AF00F02EF84D
:100EF000064A074BD3581B0F0F221340013319002A
:100F000001F0B5FB03001800BD4680BD0070044031
:100F10004410000080B582B000AF786009497B685A
:100F20005B68094A8B507B681B781800FFF7FEFE50
:100F30007B685B781800FFF7DFFEC046BD4602B055
:100F400080BDC046007004404410000080B582B0EF
:100F500000AF174B9B79DBB29B08032213403B6029
:100F60003B68012B12D03B68002B0AD03B68022B58
:100F700011D03B68032B13D100F05EF803007B60B7
:100F800011E000F017F803007B600CE0FFF750FF62
:100F900003007B6007E0FFF7E5FE03007B6002E0F3
:100FA00000237B60C0467B681800BD4602B080BD50
:100FB0000040064080B582B000AF1D4B5B78DBB2CD
:100FC0001A000223134006D1194B9B79DBB21A0099
:100FD0002023134001D0002326E0FFF749FF030040
:100FE0007B607B68002B01D17B681DE0104BDB78B8
:100FF000DBB25B09DAB2FB1C03210A401A700C4B0E
:10100000DB78DBB2DB09DAB2BB1C01210A401A70C3
:10101000FB1C1978BB1C1A78064B49008A18520031
:10102000D35A1A007B6853431800BD4602B080BDF6
:10103000004006405C28000080B582B000AF184B2D
:101040009B79DBB21A004023134001D1002323E037
:1010500001F0A1FA03007B607B68002B03D1114BE8
:10106000180000F0D5F90E4B1B79DBB21A001F23D4
:10107000134001331900786801F0F9FA03007B602E
:10108000074B5B79DBB21A001F23134018331A0099
:101090007B6853437B607B681800BD4602B080BD0F
:1010A00000400640C027000090B585B000AF0400A6
:1010B00008001100FB1D221C1A70BB1D021C1A70B7
:1010C0007B1D0A1C1A70404B9B79DBB29B080322E4
:1010D0001340FB603C4B9B79DAB20B203B1801219B
:1010E0000A401A70384B1B7ADBB25B08DAB20A246A
:1010F0003B1907210A401A707A1D3B1912781B7898
:101100009A422ED03B181B78012B19D1FB68012B7A
:1011100006D02D4B1B78DBB21A00022313400FD0F0
:10112000294B5B78DBB2284A01218B43DBB2537039
:10113000C046254B9B79DBB21A0001231340F8D13E
:10114000214B1B7ADBB22F229343DAB27B1D1B7833
:10115000DB18DBB20E210B40DBB21B491343DBB2C1
:101160000B72194B5B78DBB201229343DAB2BB1DE1
:101170001B7801210B40DBB213491343DBB24B70E8
:10118000114B1B78DBB203229343DAB20E49FB1DED
:101190001B781343DBB20B70FB68012B04D0FB1DE3
:1011A0001B78022213400AD0C046074B9B79DBB262
:1011B0001A0001231A40BB1D1B789A42F5D1002367
:1011C0001800BD4605B090BD0040064080B584B013
:1011D00000AF78607B68002B03D11E4B180000F035
:1011E00017F90F203B1800221A707B685B781F22CA
:1011F0001340D9B23B183A1812780A431A70164AAB
:101200003B181B781371144B5B79DBB21F2293439D
:10121000DAB27B689B781F210B40DBB20E49134387
:10122000DBB24B710C4B1B79DAB27B681B78134332
:10123000DBB2094A40210B43DBB21371C046064BB7
:101240009B79DBB21A0040231340F8D0C046BD465C
:1012500004B080BDE827000000400640B0B584B06F
:1012600000AF78607B681B680F257C191800FFF7BA
:1012700015FE030023707B681B791B4A19001000C0
:1012800001F068F97B680633174A1900100001F075
:1012900042F9164B5B78DBB23C229343DAB27B19FE
:1012A0001B781B01DBB230210B40DBB21343DAB2F7
:1012B0007B685B790D491343DBB24B707B685B79CC
:1012C000002B0DD0084B1B78DBB25BB2002B07DA8A
:1012D000C046064B9B79DBB21A0002231340F8D0BC
:1012E000C046BD4604B0B0BD0050064000400640B8
:1012F00080B582B000AF02003960FB1D1A703B68F8
:10130000002B03D1244B180000F082F8234B5B78AC
:10131000DBB2224A02218B43DBB253701F4B1B7896
:10132000DBB23B221340DBB21C4980225242134302
:10133000DBB20B70C046194B9B79DBB21A001C2341
:101340001340082BF7D1154B5B79DBB2134A4021D0
:101350008B43DBB25371C046104B9B79DBB21A0052
:1013600020231340F8D13B681800FFF72FFF0B4BE9
:101370005B79DBB2094A40210B43DBB25371C046B3
:10138000064B9B79DBB21A0020231340F8D00023D0
:101390001800BD4602B080BD0C2800000040064089
:1013A00080B582B000AF3A60FB1D021C1A70BB1DF5
:1013B0000A1C1A703B68002B03D1134B180000F075
:1013C00027F8FB1D1B78180001F0EDF83A68BB1DEB
:1013D0001B7811001800FFF78BFF0C4B1B78DBB25A
:1013E0000A4A3F210B40DBB21370C046074B9B7982
:1013F000DBB29B0803221340032BF7D10023180014
:10140000BD4602B080BDC046342800000040064002
:1014100080B582B000AF78607A68034B1100180085
:10142000FFF71AF800BEFDE76C28000080B584B015
:1014300000AFF860B9607A607B68002B03D1134B72
:101440001800FFF7E5FF7B681B78002B0AD1FB68CB
:101450005B690121BA6891400A00D2431A40FB68D7
:101460005A610FE07B685A78B968FB68180001F090
:10147000A5F8FB685A690121BB6899400B001A4323
:10148000FB685A61C046BD4604B080BDB02800006C
:1014900080B582B000AF786039607B68DB78DBB202
:1014A0001A001023134006D17B689B78DBB21A0028
:1014B0002023134006D0094B1B6839687A68100056
:1014C000984705E0064B1B6839687A681000984712
:1014D000BFF34F8FC046BD4602B080BD74F1FF1F01
:1014E00078F1FF1F80B500AF044B1B68044A190058
:1014F0001000FFF7CDFFC046BD4680BD6CF1FF1F59
:101500000060064080B500AF044B5B68044A1900D8
:101510001000FFF7BDFFC046BD4680BD6CF1FF1F48
:101520000070064080B500AF044B1A68044B1B687E
:10153000044819009047C046BD4680BD80F1FF1F9A
:101540007CF1FF1F00A0064080B500AF044B1A6875
:10155000044B5B68044819009047C046BD4680BDF7
:1015600090F1FF1F84F1FF1F00B0064080B500AF6F
:10157000044B1A68044B9B68044819009047C04606
:10158000BD4680BD90F1FF1F84F1FF1F00C00640E3
:1015900080B500AF034A044B0449D150C046BD4654
:1015A00080BDC046007004404410000000000310DD
:1015B00080B582B000AF7860034B7A681A60C0468D
:1015C000BD4602B080BDC04668F1FF1F80B582B045
:1015D00000AF0200FB1D1A700A4B1B78DBB23822E9
:1015E0009343DAB2FB1D1B78DB00DBB238210B40E2
:1015F000DBB204491343DBB20B70C046BD4602B0F8
:1016000080BDC0460040064080B500AFFFF7C0FF78
:10161000104B1800FFF722FE0F4B1800FFF7C8FF12
:1016200003231800FFF7D2FF0C4B1A000021002003
:10163000FFF7B6FE0223002100221800FFF734FD59
:10164000074B1800FFF766FC064B074A1A60C046B6
:10165000BD4680BDE828000000127A00DB280000AB
:10166000E028000088F0FF1F006CDC0280B584B029
:1016700000AF78607B681B0C084A94466344FB60AB
:10168000FB6819687B681B041B0C01229A40FB68ED
:101690000A431A60C046BD4604B080BD00700440D5
:1016A00080B584B000AFF860B960FB1D1A70FB68AC
:1016B000BA689200D358094A1A40FB1D1B781902D8
:1016C000E023DB000B401A431100FB68BA6892006C
:1016D000D150C046BD4604B080BDC046FFF8FFFFF4
:1016E00080B590B000AFBA4B1800FFF7BFFFB94B01
:1016F0001800FFF7BBFFB84B1800FFF7B7FFB74B59
:101700001800FFF7B3FFB64B1800FFF7AFFF3C21FF
:101710007B1801221A707B1800225A707B18B1487E
:101720001A000421FFF782FE38217B1801221A706B
:101730007B1800225A707B18AA481A000521FFF76F
:1017400075FE34217B1801221A707B1800225A7012
:101750007B18A4481A000D21FFF768FE30217B1882
:1017600001221A707B1800225A707B189D481A00BB
:101770001021FFF75BFE2C217B1801221A707B18C9
:1017800000225A707B1898481A000021FFF74EFE7D
:1017900028217B1801221A707B1800225A707B18AE
:1017A00091481A000321FFF741FE24217B180122F2
:1017B0001A707B1800225A707B188B481A0004217B
:1017C000FFF734FE20217B1801221A707B180022BB
:1017D0005A707B1884481A000721FFF727FE1C2146
:1017E0007B1801221A707B1800225A707B187E48E1
:1017F0001A000821FFF71AFE18217B1801221A701F
:101800007B1800225A707B1877481A000921FFF7CD
:101810000DFE14217B1801221A707B1800225A70C9
:101820007B1872481A000521FFF700FE10217B1873
:1018300000221A707B1800225A707B186C481A001C
:101840001521FFF7F3FD0C217B1800221A707B187D
:1018500000225A707B1866481A001621FFF7E6FD31
:1018600008217B1800221A707B1800225A707B18FE
:101870005F481A001721FFF7D9FD3B1D00221A709F
:101880003B1D00225A703B1D59481A001D21FFF7CD
:10189000CDFD3B0000221A703B0000225A703B0035
:1018A00053481A001E21FFF7C1FD524B02220121AD
:1018B0001800FFF7F5FE4F4B03220C211800FFF72D
:1018C000EFFE4C4B01220D211800FFF7E9FE494BBA
:1018D000012210211800FFF7E3FE464B02220221ED
:1018E0001800FFF7DDFE434B012204211800FFF72B
:1018F000D7FE404B012205211800FFF7D1FE3E4BD9
:10190000032201211800FFF7CBFE3B4B03220221EB
:101910001800FFF7C5FE394B012200211800FFF720
:10192000BFFE364B012203211800FFF7B9FE334BEF
:10193000012204211800FFF7B3FE304B01220721DA
:101940001800FFF7ADFE2D4B012208211800FFF70C
:10195000A7FE2A4B012209211800FFF7A1FE284B00
:10196000012205211800FFF79BFE264B01221521BD
:101970001800FFF795FE234B012216211800FFF7F0
:101980008FFE204B012217211800FFF789FE1D4B07
:1019900001221D211800FFF783FE1A4B01221E2190
:1019A0001800FFF77DFE184A184BD3581649184AFD
:1019B0001340164A8B50144A164BD358124907222B
:1019C0009343144A8B50C046BD4610B080BDC046FC
:1019D000090038100A0038100B0038100C003810BD
:1019E0000D00381000F00F4080F00F40C0F00F40A5
:1019F00000F10F400090044000A0044000B00440FB
:101A000000C0044000D00440007004400C100000EE
:101A1000FFFFEBFF1010000080B500AF034A8823E2
:101A20005B010021D150C046BD4680BD007004401E
:101A300037B5184C18492200002000F089F880239F
:101A400080225B00D2000021200000F02FF8134C10
:101A5000134D22002900012000F07AF88023802213
:101A60005B00D2000021200000F020F80D4B1B6825
:101A70000193022B0DDD0C4C29002200022000F006
:101A800067F8802380225B00D2000021200000F054
:101A90000DF837BD98F1FF1FF4280000D4F1FF1FA7
:101AA000F6280000F028000010F2FF1FF0B5C5680E
:101AB0000124AE070CD08024A400A24214D08024BC
:101AC000E400A24206D080246400A2420CD0FF3C75
:101AD0002000F0BD010001232431154301610160A4
:101AE000C361C5600024F3E7024F5E1E0124BE42BD
:101AF000F3D9EDE7FEFFFF00032310B5411C020000
:101B0000184217D1104C13681048181898432042F7
:101B100017D0DCB2501C002C11D0FF242402901CE2
:101B200023420CD0FF2000040340581E8341D318E9
:101B3000D81C04E00130421E1278002ADFD1401A7E
:101B400010BD0432DFE7C04680808080FFFEFEFECD
:101B5000F7B50D0001901000140000F033F82B7859
:101B6000722B1CD0772B1DD0612B26D1144A593BE8
:101B70000220691C032784460426012508782B28A7
:101B800013D0622816D0E260019A62611B0704D567
:101B900002220021200000F065F82000FEBD002395
:101BA0000122E5E704230222E2E760463A430343C9
:101BB0000131E3E732432B43FAE70024EDE7C04667
:101BC00002800000F0B5C46889B00500A30722D0E8
:101BD000230718D44769066900F022F8380000F09E
:101BE00095FD230502D5300000F028FD0B4BA40D18
:101BF000A4059C4207D12022296A684600F095FD81
:101C0000684600F012FD3C220021280000F009FD8A
:101C1000002009B0F0BD01204042FAE7000080AD8D
:101C200073B5002813D000F0B9F80500280076BD80
:101C300030006043094BC01800F0B0F8002801D014
:101C400001256D420134019BA342F1DCEEE7044B18
:101C500004001B68050001933C26F4E798F1FF1F80
:101C6000F0280000F7B5394BC56804000E0000925B
:101C70001D4202D102273800FEBD436918000193BE
:101C800000F04AFD071EF5D1009B012B05D0022B69
:101C90002CD0002B05D00237EDE7200000F05AF8D9
:101CA0003618002EE6DBAB0404D52368E26A9A42BC
:101CB00000D2E362A069B0420EDCE26A236893427C
:101CC00000D21300226919180092891AB14203DB6D
:101CD000216B4218B24228DC20231D430023A66258
:101CE000A36063601A4B1D40E560C4E7019800F0F3
:101CF00010FDE268002804DA80231343E360012723
:101D0000B9E7E16A2368994200D90B00A1695B1821
:101D100021695B1A920603D5A26A934200DA130086
:101D2000834200DA0300F618BBE7361AAA0701D58A
:101D3000711AA160EA0703D5009A9B1AF31A63602F
:101D4000009B9E19202326609D43CBE703001000D3
:101D5000BFCFF7FFC268930705D1212201200E4BA8
:101D600040421A6070472023134012030AD5002B0B
:101D700002D0806A0138F5E70368826900699B1820
:101D8000181AF7E7002B01D0806AEBE70368826935
:101D900000699B18181AE5E794F1FF1F70B5032638
:101DA000C36804001E4011D09B0611D5856A00F05F
:101DB00079F8E268094B20001340E36000F010F866
:101DC0000022060029002000FFF74CFF300070BD04
:101DD000036882699D180369ED1AEAE7FFCFFFFFE8
:101DE00070B5040005690168C26A124BC0680340FF
:101DF000E36082230340022B02D00120404270BDE9
:101E000080235B021840FAD0914200D211008D422B
:101E100008D10020E268084BE56213402560A0600D
:101E2000E360ECE7491B2200280000F007F80028D7
:101E3000EFD0E2E7FFFFF7FFFFFFFEFFF7B5D56842
:101E400001900E0014005769EB0205D510233800ED
:101E50001D4300F05EFCA061104B1D420FD0A16934
:101E6000380000F05FFC002806DA80230120E268D9
:101E700040421343E3600FE0094B1D40E560320030
:101E80000199380000F054FC43005B08F61AA3697E
:101E90009E19A6610028E8D1FEBDC04610000200D0
:101EA000EFFFFDFF202310B50400C2689A43E260F3
:101EB0008369826A93420CD0FFF792FFE368074A76
:101EC0001A4010231343E360A36AA3612369E3620A
:101ED0002360E268024B1340E36010BDEFCFFFFFC9
:101EE000BFBFFFFF80B586B000AFB9607A603B60CE
:101EF0000F23FB18021C1A70BB687B610DE00F23D7
:101F0000FB181A783B6A100098473B681B685A1CFC
:101F10003B681A607B6901337B617A697B689A420E
:101F2000EDDBC046BD4606B080BD80B58CB000AFCD
:101F3000F860B9607A603B600023FB61FB68BB61BD
:101F4000BB695A1CBA6100221A707B68002B35D01D
:101F5000BB681B68FB62FB6A002B2BD1BB6930227C
:101F60001A70FB690133FB61FB6964E03968F86A48
:101F700000F07AFB03007B617B693A685343FA6A9D
:101F8000D31ABB62BB6A002B06DABB6A3B623B6AB0
:101F90003022D31ABB6202E0BB6A3033BB627B697A
:101FA000FB62BB695A1CBA61BA6AD2B21A70FB6989
:101FB0000133FB61FB6A002BD8D13BE0BB681B6897
:101FC0007B627B6A002B32D1BB6930221A70FB69BD
:101FD0000133FB61FB692EE03B681900786A00F071
:101FE00046FB03003B613B683A6953437A6AD31A64
:101FF0003B623B6A092B03D83B6A30333B620BE000
:102000003823FB181B78002B01D0412300E061230B
:102010003A6A9B180A3B3B623B697B62BB695A1C6C
:10202000BA613A6AD2B21A70FB690133FB617B6A0A
:10203000002BD1D1FB691800BD460CB080BD90B516
:102040009DB002AFF860B9607A6000233B66002360
:10205000FB650023BB614A23FB1800221A70002392
:102060003B61BB687B6679E17B6C252B07D07A6C82
:10207000FB6810009847BB690133BB616BE14B23E0
:10208000FB1801221A7000237B650023BB651BE04F
:102090007B6E01337B667B6E1B787B647B6C2F2BA6
:1020A0000DDD7B6C392B0ADC7A6D13009B009B18CD
:1020B0005B001A007B6CD318303B7B6504E07B6EC1
:1020C000013B7B660123BB65BB6D002BE0D0062383
:1020D0003B657B6E01337B667B6E1B782E2B24D198
:1020E00000233B650023BB651BE07B6E01337B66F1
:1020F0007B6E1B787B647B6C2F2B0DDD7B6C392B0F
:102100000ADC3A6D13009B009B185B001A007B6C85
:10211000D318303B3B6504E07B6E013B7B660123BB
:10212000BB65BB6D002BE0D002E07B6E013B7B66A4
:102130007B6E01337B667B6E1B787B647B6C642BD0
:102140001BD07B6C692B18D07B6C662B15D07B6CFD
:10215000462B12D07B6C782B0FD07B6C582B0CD07D
:102160007B6C6F2B09D07B6C622B06D07B6C702B49
:1021700003D07B6C752B00D0A9E07B6C642B02D064
:102180007B6C692B16D17B681A1D7A601B687B619A
:102190001423F9181C2438194B23FB181B780093BF
:1021A0000A230122FFF7C1FE0300FB653A19FB6D0C
:1021B000D3183B667B6C582B02D07B6C782B1DD1DF
:1021C0007B6C782B03D14B23FB1800221A707B68A1
:1021D0001A1D7A601B683B611023F9181C243819FA
:1021E0004B23FB181B78009310230022FFF79DFE62
:1021F0000300FB653A19FB6DD3183B667B6C6F2BB4
:1022000008D07B6C622B05D07B6C702B02D07B6C72
:10221000752B3ED17B681A1D7A601B683B617B6C15
:102220006F2B0DD07B6C6F2B03DC7B6C622B0CD087
:102230001AE07B6C702B0DD07B6C752B0FD013E0EC
:102240004A23FB1808221A700EE04A23FB180222C8
:102250001A7009E04A23FB1810221A7004E04A237E
:10226000FB180A221A70C0464A23FB181A7810235A
:10227000F9181C2438194B23FB181B780093130002
:102280000022FFF752FE0300FB653A19FB6DD318DD
:102290003B667A6D1823F818F96DFB68009303000C
:1022A0002020FFF71FFE3B6E002B54D00AE03B6E50
:1022B0005A1E3A661B781A00FB6810009847BB69E3
:1022C0000133BB613B6E1B78002BF0D143E07B6C8C
:1022D000632B0DD17B681A1D7A601B68DBB23B64EF
:1022E0003A6CFB6810009847BB690133BB6132E070
:1022F0007B6C732B28D17B681A1D7A601B68FB648A
:10230000FB6C002B27D0FB6C1800FFF7F5FB0300DC
:10231000FB657A6D1823F818F96DFB6800930300CC
:102320002020FFF7DFFD0AE0FB6C5A1CFA641B78E3
:102330001A00FB6810009847BB690133BB61FB6C56
:102340001B78002BF0D106E07A6CFB6810009847F0
:10235000BB690133BB617B6E01337B667B6E1B788F
:102360007B647B6C002B00D07EE6BB691800BD4609
:102370001BB090BD80B584B000AFF860B960FB1DA4
:102380001A70FB1D1B78002B05D10122BB689A40F7
:10239000FB689A6004E00122BB689A40FB685A60BF
:1023A000C046BD4604B080BD80B584B000AF020019
:1023B0003960FB1D1A70FB1DFA1D127807210A40B7
:1023C0001A70FB1D1B78DB005BB2402213435BB22B
:1023D000DBB21800FEF716FA0023FB6009E0FB6889
:1023E0003A68D3181B781800FEF72CFAFB68013303
:1023F000FB60FB68072BF2DDC046BD4604B080BD24
:10240000C046C046C0467047C0460020C046C046D1
:10241000C046C04601300928F8D9C0467047C046BA
:1024200080B582B000AF0200BB1D1A8006E0FFF746
:10243000ECFFBB1DBA1D1288633A1A80BB1D1B88B6
:10244000632BF4D806E0FFF7DBFFBB1DBA1D128833
:102450000A3A1A80BB1D1B880A2BF4D8C046BD4619
:1024600002B080BD80B584B000AF786039607B6811
:102470005B68FB603B68FA685A60FB689A683B6877
:102480009A60FB689B683A685A60FB683A689A6091
:102490003B687A681A617B681B685A1C7B681A6003
:1024A000C046BD4604B080BD80B584B000AF786042
:1024B0007B681B69FB607B685B687A6892689A60DE
:1024C0007B689B687A6852685A60FB685B687A68C8
:1024D0009A4203D17B689A68FB685A607B68002245
:1024E0001A61FB681B685A1EFB681A60FB681B6850
:1024F0001800BD4604B080BD80B500AFC046BD46E3
:1025000080BDEFF3108072B670470023180080F38F
:1025100010887047C04680B584B000AF78603960DD
:102520000F203B187A6812781A703B183A18127804
:102530005F210A401A703B6819783B183A181278E4
:102540000A431A707B683A1812781A70C046BD4662
:1025500004B080BD80B584B000AF78600A00FB1C79
:102560001A700F203B187A6812781A703B183A18C4
:1025700012780F218A431A703B183918FA1C09780F
:1025800012780A431A707B683A1812781A70C0469B
:10259000BD4604B080BD80B500AFFEF7E3FB03008D
:1025A0001800BD4680BD80B582B000AF0200FB1DA3
:1025B0001A7000231800BD4602B080BD80B584B0FB
:1025C00000AFF860B960FB1D1A70FB1D1B78002B73
:1025D00005D10122BB689A40FB689A6004E00122A1
:1025E000BB689A40FB685A60C046BD4604B080BDD7
:1025F00080B500AFFFF708F8C046BD4680BD80B586
:1026000000AFC046BD4680BD80B500AFFFF768F89B
:10261000C046BD4680BD10B5FFF70AFAFEF7CCF9FB
:1026200010BD10B500F05DF810BD10B50400FFF747
:1026300063FA0100200000F072F810BD10B5002808
:1026400011D080210C38490501608268002A0AD027
:1026500013688B4207D14368546803331B194360E6
:1026600093688360F1E710BD03000B4321D4002978
:1026700031D00122D207030901E009011209994270
:10268000FBD9430801E0490052089942FBD900E018
:102690004908401A07D35241FAD301461046704701
:1026A00049084018F7D29218FAD34018014610464C
:1026B0007047CB0F00D04942021000D54042534032
:1026C00008B5FFF7D4FF0CBC521000D34042002ADB
:1026D00000D549421847F446002000F001F8604751
:1026E00070478446043A09D3830707D109060B0AC9
:1026F00019430B0C1943043A02C0FCD2043203D034
:1027000001700130013AFBD1604670470120404220
:10271000704701204042704701204042704701202D
:1027200040427047012040427047012040427047BC
:102730001000704704040A0A111F00FF2E2E2F6498
:102740007269766572732F66736C5F636C6F636B0F
:102750002E633A323235203A20675F7874616C30EC
:1027600046726571000000002E2E2F647269766536
:1027700072732F66736C5F636C6F636B2E633A3397
:102780003430203A20675F7874616C30467265712E
:10279000000000002E2E2F647269766572732F661A
:1027A000736C5F636C6F636B2E633A333630203A21
:1027B00020675F7874616C33324672657100000087
:1027C0002E2E2F647269766572732F66736C5F6349
:1027D0006C6F636B2E633A353937203A206D63672F
:1027E000706C6C30636C6B002E2E2F647269766592
:1027F00072732F66736C5F636C6F636B2E633A3713
:102800003630203A20636F6E666967002E2E2F6483
:102810007269766572732F66736C5F636C6F636B3E
:102820002E633A31333830203A20636F6E66696721
:10283000000000002E2E2F647269766572732F6679
:10284000736C5F636C6F636B2E633A313534392080
:102850003A20636F6E66696700FFFFFF8002DC024B
:102860000005B80580079508000A710B25730A005A
:102870002E2E2F647269766572732F66736C5F6794
:1028800070696F2E633A3638203A20696E7374612E
:102890006E6365203C2041525241595F53495A456D
:1028A00028735F6770696F42617365732900000068
:1028B0002E2E2F647269766572732F66736C5F6754
:1028C00070696F2E633A3735203A20636F6E666900
:1028D0006700FFFF07020000030100000100FFFF87
:1028E000010300000000011000127A0000048000C3
:0828F0000300000072007700F4
:0C28F8000080000000093D0000004001CD
:04000003000000D524
:00000001FF
